:03000000020003F8
:0C000300787FE4F6D8FD75812902004AE0
:1000D300202008003F0006005B004F0066006D0013
:1000E3007D0007007F006F0077007C0039005E0011
:0300F30079007120
:10008F0075280075297BD2A4D2A5D2A6850B90C264
:10009F00A47F647E00EF1FAC0670011E4C70F685C6
:1000AF000D90C2A5FE7F64EF1FAC0670011E4C7051
:1000BF00F6850F90C2A6FE7F64EF1FAC0670011E7F
:0300CF004C70F67C
:0100D200220B
:10000F0002008FE493A3F8E493A34003F68001F278
:10001F0008DFF48029E493A3F85407240CC8C333F2
:10002F00C4540F4420C8834004F456800146F6DFC1
:10003F00E4800B01020408102040809000D3E47E7E
:10004F00019360BCA3FF543F30E509541FFEE493B6
:10005F00A360010ECF54C025E060A840B8E493A37D
:10006F00FAE493A3F8E493A3C8C582C8CAC583CAA8
:10007F00F0A3C8C582C8CAC583CADFE9DEE780BE60
:0100F6000009
:00000001FF
