:030000000200A853
:0C00A800787FE4F6D8FD75812B0200EF94
:1001BF00202008003F0006005B004F0066006D0026
:1001CF007D0007007F006F0077007C0039005E0024
:0301DF0079007133
:10000600D2AFD2A8D288752A03752B15D2A4D2A551
:10001600D2A690FEFCE4F0AE2AAF2BFC7D64120162
:1000260034EF25E02408F808E6F590C2A475280008
:10003600752932E5291529AE28700215284E70F368
:10004600D2A4AE2AAF2BFC7D0A1201347C007D0AB5
:10005600120134ED25E02408F808E6F590C2A575EE
:100066002800752932E5291529AE28700215284E73
:1000760070F3D2A5AE2AAF2BFC7D0A120134ED2512
:10008600E02408F808E6F590C2A67528007529321E
:10009600E5291529AE28700215284E70F3D2A6025E
:0200A600001840
:030003000201E314
:1001E300C0E0C083C08290FEFCE0752A00F52BD0EE
:0601F30082D083D0E0324F
:1000B400020006E493A3F8E493A34003F68001F25C
:1000C40008DFF48029E493A3F85407240CC8C3334D
:1000D400C4540F4420C8834004F456800146F6DF1C
:1000E400E4800B01020408102040809001BFE47EEC
:1000F400019360BCA3FF543F30E509541FFEE49311
:10010400A360010ECF54C025E060A840B8E493A3D7
:10011400FAE493A3F8E493A3C8C582C8CAC583CA02
:10012400F0A3C8C582C8CAC583CADFE9DEE780BEBA
:0101E200001C
:10013400C2D5EC30E709B2D5E4C39DFDE49CFCEEE6
:1001440030E715B2D5E4C39FFFE49EFE12016AC3F3
:10015400E49DFDE49CFC800312016A30D507C3E4EE
:060164009FFFE49EFE2255
:10016A00BC000BBE0029EF8DF084FFADF022E4CC79
:10017A00F875F008EF2FFFEE33FEEC33FCEE9DEC42
:10018A00984005FCEE9DFE0FD5F0E9E4CEFD22ED88
:10019A00F8F5F0EE8420D21CFEADF075F008EF2FD2
:1001AA00FFED33FD4007985006D5F0F222C398FDC3
:0501BA000FD5F0EA2260
:00000001FF
