:030000000201C139
:0C01C100787FE4F6D8FD7581220200F979
:1001600049276D204368696E657365210049206CDD
:0B0170006F7665204368696E61210016
:10017B00C2A2C2A18F80D2A0E4FFFE0FBF00010E6E
:08018B00BE07F8BFD0F5C2A0C9
:010193002249
:1001AD007F0112017B7F3812017B7F0F12017B7F54
:0401BD000602017BBA
:10019400D2A2C2A18F80D2A0E4FFFE0FBF00010E45
:0801A400BE07F8BFD0F5C2A0B0
:0101AC002230
:1000F90078087C007D007BFF7A0179607E007F0DA6
:100109001200D378157C007D007BFF7A01796D7E22
:10011900007F0E1200D31201ADE4FDFCED2481FF36
:1001290012017B74082DF8E6FF1201940DBD000140
:100139000CED640C4C70E5E4FCFDED24C1FF1201EB
:100149007B74152DF8E6FF1201940DBD00010CED2D
:07015900640D4C70E580FE0F
:10000300E709F608DFFA8046E709F208DFFA803EDF
:1000130088828C83E709F0A3DFFA8032E309F608CC
:10002300DFFA8078E309F208DFFA807088828C8334
:10003300E309F0A3DFFA806489828A83E0A3F608E8
:10004300DFFA805889828A83E0A3F208DFFA804CC2
:1000530080D280FA80C680D4806980F28033801099
:1000630080A680EA809A80A880DA80E280CA803302
:1000730089828A83ECFAE493A3C8C582C8CCC5837A
:10008300CCF0A3C8C582C8CCC583CCDFE9DEE7804A
:100093000D89828A83E493A3F608DFF9ECFAA9F0C9
:1000A300EDFB2289828A83ECFAE0A3C8C582C8CC1F
:1000B300C583CCF0A3C8C582C8CCC583CCDFEADE38
:1000C300E880DB89828A83E493A3F208DFF980CC9A
:1000D30088F0EF60010E4E60C388F0ED2402B40493
:1000E3000050B9F582EB2402B4040050AF2323453A
:0600F3008223900053730C
:00000001FF
