:030000000201F406
:0C01F400787FE4F6D8FD7581160201E367
:1000030048656C6C6F20576F726C6421003F065B10
:070013004F666D7D077F6F52
:1001CD00759850758BFD758DFD758920D28E538771
:0601DD00EFD2ACD2AF220C
:0601A6008B088A09890A9A
:1001AC00AB08AA09A90A850C82850B8312011C6075
:1001BC000FF5993099FD050CE50C70E4050B80E00A
:0101CC002210
:1001E3001201CDE4F5A07BFF7A0079031201A6800A
:0101F300FE0D
:030023000201498E
:10014900C0E0C0F0C083C082C0D075D000C000C07C
:0D01590001C002C003C004C005C006C007FD
:10016600780D7C007D007BFF7A0079107E007F0A87
:100176001200F630980DC298AF9974DD2FF8E6F5A7
:05018600A08002C299F7
:10018B00D007D006D005D004D003D002D001D000C8
:0B019B00D0D0D082D083D0F0D0E03272
:10002600E709F608DFFA8046E709F208DFFA803EBC
:1000360088828C83E709F0A3DFFA8032E309F608A9
:10004600DFFA8078E309F208DFFA807088828C8311
:10005600E309F0A3DFFA806489828A83E0A3F608C5
:10006600DFFA805889828A83E0A3F208DFFA804C9F
:1000760080D280FA80C680D4806980F28033801076
:1000860080A680EA809A80A880DA80E280CA8033DF
:1000960089828A83ECFAE493A3C8C582C8CCC58357
:1000A600CCF0A3C8C582C8CCC583CCDFE9DEE78027
:1000B6000D89828A83E493A3F608DFF9ECFAA9F0A6
:1000C600EDFB2289828A83ECFAE0A3C8C582C8CCFC
:1000D600C583CCF0A3C8C582C8CCC583CCDFEADE15
:1000E600E880DB89828A83E493A3F208DFF980CC77
:1000F60088F0EF60010E4E60C388F0ED2402B40470
:100106000050B9F582EB2402B4040050AF23234516
:06011600822390007673C5
:10011C00BB010CE58229F582E5833AF583E0225098
:10012C0006E92582F8E622BBFE06E92582F8E222E2
:0D013C00E58229F582E5833AF583E49322FC
:00000001FF
