:030000000200EE0D
:0C00EE00787FE4F6D8FD75810B02013527
:080003000206040C08090103C8
:0402200002083CB0E4
:0B021500EF1FAC0670011E4C70F622BB
:10000E0075A003758901AE08AF097C007DFF120152
:10001E007A8F8CAE08AF097C007DFF12017A8D8A33
:10002E00D2AFD2A9D28C309008309105E4F50AF502
:10003E000B209027E50B6402450A701FEBC3940852
:10004E00748094805005EB04FF80027F00AB07EBB9
:10005E0090000393F5A0E4F50AF50B209127E50B2C
:10006E006402450A701FEBD394007480948040059F
:10007E00EB14FF80027F07AB07EB90000393F5A014
:10008E00E4F50AF50B2092267FE87E031202153066
:10009E0092FDC3E5099477E50894EC5011E4F50A56
:1000AE00F50B74882509F50974133508F508309396
:1000BE00030200347FE87E031202153093FDD3E570
:1000CE00099488E50894135003020034E4F50AF508
:1000DE000B74782509F50974EC3508F5080200341F
:03000B000201CF20
:1001CF00C0E0C0F0C0D075D000C000C004C005C0F2
:1001DF0006C007AE08AF097C007DFF12017A8F8C35
:1001EF00AE08AF097C007DFF12017A8D8A050BE501
:1001FF000B7002050AD007D006D005D004D000D06E
:06020F00D0D0F0D0E03277
:1000FA0002000EE493A3F8E493A34003F68001F20E
:10010A0008DFF48029E493A3F85407240CC8C33306
:10011A00C4540F4420C8834004F456800146F6DFD5
:10012A00E4800B0102040810204080900220E47E43
:10013A00019360BCA3FF543F30E509541FFEE493CA
:10014A00A360010ECF54C025E060A840B8E493A391
:10015A00FAE493A3F8E493A3C8C582C8CAC583CABC
:10016A00F0A3C8C582C8CAC583CADFE9DEE780BE74
:0102240000D9
:10017A00BC000BBE0029EF8DF084FFADF022E4CC69
:10018A00F875F008EF2FFFEE33FEEC33FCEE9DEC32
:10019A00984005FCEE9DFE0FD5F0E9E4CEFD22ED78
:1001AA00F8F5F0EE8420D21CFEADF075F008EF2FC2
:1001BA00FFED33FD4007985006D5F0F222C398FDB3
:0501CA000FD5F0EA2250
:00000001FF
