:03000000020108F2
:0C010800787FE4F6D8FD75810D0200BA86
:1000F8003F065B4F666D7D077F6F777C395E797150
:1000BA00E4F508F509D2901201141200E512011EA6
:0800CA0012001612006980F813
:10001600E4F50AF50BF50CF50D74F8250DF582746B
:1000260000350CF583E493F5A0C3E50B9414E50ABB
:100036006480948040F3E4F50AF50BE50D64104501
:100046000C7004F50CF50DE509640145086013050F
:100056000DE50D7002050CC39410E50C64809480C8
:0300660040B7227E
:10006900E4F50AF50BF50CF50D74F8250DF5827418
:1000790000350CF583E493F5A0C3E50B9414E50A68
:100089006480948040F3E4F50AF50BE50D640A45B4
:100099000C7004F50CF50DE50945086013050DE52F
:1000A9000D7002050CC3940AE50C6480948040B974
:0100B9002224
:03000300020128CF
:070128006309FF6308FF32C9
:03000B000200D21E
:1000D200C0E0050BE50B7002050A758C3C758AB011
:0300E200D0E03239
:03001300020006E2
:03000600B2903283
:0A011400D288D2A8D2AFE4FEFF2289
:1000E500758901758C3C758AB0D2A9D2AFD28CE4E2
:0300F500FEFF22E9
:0A011E00D28AD2AAD2AFE4FEFF227B
:00000001FF
