:0300000002036D8B
:0C036D00787FE4F6D8FD75811102033B97
:10034E003F065B4F666D7D077F6F777C395E7971F7
:04035E007FE87E03B3
:0B036200EF1FAC0670011E4C70F6226D
:08000300758901D2AFD2A922D8
:1002EE00E51175F00A8490034E93F580D2A2C2A355
:1002FE00D2A47F647E00120362E4F580E51175F0EE
:10030E000A84E5F093F580C2A2C2A3D2A47F647ED4
:08031E0000120362E4F58022E5
:10025A0020B10B12035E30B1FDD28C75113220B081
:10026A001412035E30B0FDE5117003FF8005E5113D
:10027A0024F6FF8F1120B21712035E30B2FDE5118A
:10028A00646470047F648005E511240AFF8F1120DD
:10029A00B30D12035E30B3FDC28CC290E4F5112295
:03000B00020326C7
:10032600B290309006850B8C850F8A209006850941
:050336008C850D8A32E8
:10000E00E51175F064A4FFAEF0E4FCFDC007AF107F
:10001E00AB07FAF9F8D0071202AAC004A905AA067E
:10002E00AB07E510FD7C007E277F10120137C374ED
:10003E00FF9FFF74FF9EFEE49400FDE49400FCD04D
:10004E0000EB2FFFEA3EFEE93DFDE83CFCE4FB7AC7
:10005E0001F9F81202AA8E088F09E51175F064A451
:10006E00FFAEF0E4FCFDC007AF10AB07FAF9F8D015
:10007E00071202AAC004A905AA06AB07E510FD7C6B
:10008E00007E277F10120137C374FF9FFF74FF9EFF
:10009E00FEE49400FDE49400FCD000EB2FFFEA3E5A
:1000AE00FEE93DFDE83CFCE4FB7A01F9F81202AAF8
:1000BE00AE02AF038E0C8F0DE51175F064A4FFAE8A
:1000CE00F0E4FCFDC007AF10AB07FAF9F8D0071249
:1000DE0002AAC374FF9FFF74FF9EFEE49DFDE49C85
:1000EE00FCE4FB7A01F9F81202AA8E0A8F0BE511D5
:1000FE0075F064A4FFAEF0E4FCFDC007AF10AB07D3
:10010E00FAF9F8D0071202AAC374FF9FFF74FF9E7C
:10011E00FEE49DFDE49CFCE4FB7A01F9F81202AAD0
:09012E00AE02AF038E0E8F0F220A
:10033B00C29075100512000312000E12025A12021F
:03034B00EE80F54C
:10013700BC000BBE0029EF8DF084FFADF022E4CCAC
:10014700F875F008EF2FFFEE33FEEC33FCEE9DEC75
:10015700984005FCEE9DFE0FD5F0E9E4CEFD22EDBB
:10016700F8F5F0EE8420D21CFEADF075F008EF2F05
:10017700FFED33FD4007985006D5F0F222C398FDF6
:050187000FD5F0EA2293
:1002AA00C2D5E830E70FB2D5E4C39BFBE49AFAE47F
:1002BA0099F9E498F8EC30E717B2D51202E0120186
:1002CA00C8E4C39BFBE49AFAE499F9E498F880033A
:1002DA001201C830D50DE4C39FFFE49EFEE49DFDE4
:0402EA00E49CFC2272
:10018C0075F008758200EF2FFFEE33FECD33CDCC2A
:10019C0033CCC58233C5829BED9AEC99E5829840AD
:1001AC000CF582EE9BFEED9AFDEC99FC0FD5F0D68A
:1001BC00E4CEFBE4CDFAE4CCF9A88222B800C1B9B4
:1001CC000059BA002DEC8BF084CFCECDFCE5F0CBF2
:1001DC00F97818EF2FFFEE33FEED33FDEC33FCEB2B
:1001EC0033FB10D703994004EB99FB0FD8E5E4F9E6
:1001FC00FA227818EF2FFFEE33FEED33FDEC33FCD3
:10020C00C933C910D7059BE99A4007EC9BFCE99AC6
:10021C00F90FD8E0E4C9FAE4CCFB2275F010EF2F0B
:10022C00FFEE33FEED33FDCC33CCC833C810D7070B
:10023C009BEC9AE899400AED9BFDEC9AFCE899F846
:0E024C000FD5F0DAE4CDFBE4CCFAE4C8F922D9
:00000001FF
