:0300000002009467
:0C009400787FE4F6D8FD75810902000EAB
:080003000206040C08090103C8
:10000E0075A003758901758C3C758AB0D2AFD2A9E3
:10001E00D28C309008309105E4F508F50920902730
:10002E00E50964024508701FEFC39408748094803C
:10003E005005EF04FE80027E00AF06EF90000393A2
:10004E00F5A0E4F508F5092091C8E5096402450814
:10005E0070C0EFD39400748094804005EF14FE803E
:10006E00027E07AF06EF90000393F5A0E4F508F5C6
:03007E0009809F57
:03000B000200816F
:10008100C0E0758C3C758AB00509E5097002050868
:03009100D0E0328A
:00000001FF
