:030000000200F00B
:0C00F000787FE4F6D8FD7581200201370E
:10021A0043757272656E742054656D703A202020A1
:10022A0020000C12120C000000000001010203035E
:0A023A000404050606070808090978
:10030600070D54454D503A2000010C000214000020
:08031600040800000000C18092
:0402B2007F057E0046
:1002B600EF1FAA0670011E4A600FE4FDEDC394C845
:0902C6007480948050EA0D80F36D
:0102CF00220C
:10031F00C2A0D2A1D2A200000000E580339201C298
:03032F00A2A20186
:0103320022A8
:1002D00012031F40FBC2A0C2A1C2A200008F800077
:0C02E000000000D2A200000000C2A22218
:1002EC0012031F40FBD2A0C2A1C2A28F800000004B
:0A02FC0000D2A200000000C2A222FE
:10028F007F011202D01202B27F381202D01202B2D4
:10029F007F0C1202D01202B27F061202D01F7E0014
:0302AF000202B692
:07035700EF4480FF0202D019
:06034700D2B37F087E0026
:0A034D00EF1F70011E144E70F7221E
:0701B40012026A7F017E00C8
:1001BB00E4FDFCC3ED9FEC9E50257BC7EBD3940075
:1001CB007480948040127A01EAD3940074809480F6
:0F01DB0040031A80F31B80E40DBD00010C80D49B
:0101EA0022F2
:10033300120347C2B37F5A7E0012034D120347D202
:03034300B3AF163F
:010346002294
:1001EB00E4FDD2B300FCECC3940874809480501CE3
:1001FB00C2B3EDC313FDD2B3000030B3034305808C
:0E020B007F1E7E0012034DD2B30C80DAAF05C9
:0102190022C2
:02026A00AD07DE
:10026C00E4FBEBC39408748094805016C2B3ED1376
:10027C0092B37F057E0012034DD2B3EDC313FD0B79
:02028C0080E010
:01028E00224D
:10017C00120333EF64017003C20022120333120125
:10018C00B77FCC12026A7F441201B41203331201FE
:10019C00B77FCC12026A7FBE1201B41201EB8F142E
:0801AC001201EB8F15D20022B5
:10000300751696E4FFE51554F864F8700F6315FF51
:10001300E514F404F514700205157F01E514540F7B
:1000230090023493F508E5155407C454F0FEE51423
:1000330054F0C4540F4EF50C75F06484F50BE50CC5
:1000430075F06484E5F075F00A84F50AE50C75F043
:100053000A8485F009E5082430F51875172EE5099B
:100063002430F516E50A2430F515E50B2430F51494
:10007300E50BFD7C007003751420E50A7007ED4C59
:100083007003751520EF6017E515B4200575152D60
:10009300800DE514B4200575142D800375132DE42C
:1000A300FF120357E4FEEEC3941074809480500C47
:1000B300EE90021A93FF1202EC0E80EA7F401203C5
:1000C30057E4FEEEC3941074809480500C740D2E8C
:1000D300F8E6FF1202EC0E80EA7F4D120357E4FFAD
:0D00E3001202EC7F4E1203577F430202EC25
:1002440012028F12017C7F507EC312034D7F507EB9
:10025400C312034D12017C3000031200037F647E3D
:06026400001202B680EE5C
:1000FC00020244E493A3F8E493A34003F68001F2D4
:10010C0008DFF48029E493A3F85407240CC8C33304
:10011C00C4540F4420C8834004F456800146F6DFD3
:10012C00E4800B0102040810204080900306E47E5A
:10013C00019360BCA3FF543F30E509541FFEE493C8
:10014C00A360010ECF54C025E060A840B8E493A38F
:10015C00FAE493A3F8E493A3C8C582C8CAC583CABA
:10016C00F0A3C8C582C8CAC583CADFE9DEE780BE72
:01031E0000DE
:00000001FF
