:030000000200A259
:0C00A200787FE4F6D8FD758107020003AA
:100003007DE87C03ED1DAA0470011C4A6012C290B6
:100013007E007F64EF1FAA0670011E4A60E680F42B
:100023007C037DE8ED1DAA0470011C4A6021C29087
:100033007E007F32EF1FAA0670011E4A70F6D2902F
:10004300FE7F32EF1FAA0670011E4A60D780F47C40
:10005300037DE8ED1DAA0470011C4A6021C2907E55
:10006300007F19EF1FAA0670011E4A70F6D290FE98
:100073007F4BEF1FAA0670011E4A60D780F47C03F2
:100083007DE8ED1DAA0470011C4A6012D2907E0027
:0E0093007F64EF1FAA0670011E4A60E680F42B
:0100A100223C
:00000001FF
