:10000300FFFFFFFFFFFFFFFFFFFFFFFFFFFFFFFFFD
:10001300FFFFFFF9E3070F0F3FFFFFFF3F1F1F1F07
:100023003F7F3FBF7FFFFFFFFFFFFFFFFFFFFFFF9D
:10003300FFFFFFFFFFFFFFFFFFFFFFFFFFFFFFFFCD
:10004300FFFF7F7FFFFFFFFFFFFFFFFFFFFFFFFFBD
:10005300FFFFFFFFFFFFFFFFFFFFFFFFFFFFFFFFAD
:10006300FFFFFFFFFFFFFFFFFFFFFFFFFFFFFFFF9D
:10007300FFFFFFFFFFFFFFFFFFFFFFFFFFFFFFFF8D
:10008300FFFFFFFFFFFFFFFFEFC7C78F070301015D
:1000930001030387CFFC800000037F3F3C383060BF
:1000A300E0F0F0F8FCFF9F3F3F3F3F7FFFFFFFFF84
:1000B300FFFFFFFFFFFFFFFFFFFFFFFFFFFFFFFF4D
:1000C300FF7F00000001233F7FFFFFFFFFFFFFFFD4
:1000D300FFFFFFFFFFFFFFFFFFFFFFFFFFFFFFFF2D
:1000E3009F3F3F7F7FFFFFFFFFFFFFFFFFFFFFFFFD
:1000F30001033FFFFFFFFFFFFFFFFFFFFFFFFFFFC7
:10010300FFFFFFFFFFFFFFFFFFFF7F7F3C9E1E0EF2
:100113000697D3DBC9EDECE080000000F8FCFCFEA1
:10012300FFFFFFFFFF3FFFFFF8F0F878311B8F8FD2
:10013300C7E7E7F3630303071F3FFFE7CFCFC70318
:100143000100000080E0F0E00000000107C7FB139E
:10015300070F0707C3C101010303070F3F7FFFFF1A
:10016300E1E0E0E0E0707BFFFF7F3F1F1F0F0787A9
:10017300C0604061C1E0E0F0F1010307070F1FFF1A
:10018300FF9F8FDFCFE7F373391CFEF6F7370000CD
:100193000003C3F178B8FDFFFFFCE08000031F0FED
:1001A3000001FFFF3F00010703D1F4EC3E7C3D1942
:1001B3000303030080800030FCFFFFFFFF1F0300E9
:1001C30000C070001F3F0F010000C0F0FEF7E18088
:1001D3008000000007C7C0C8CCCCFCFCFEFF210395
:1001E3000F1F0F0FF3F9E08003003C3E1E0F91D168
:1001F300E1C0C0C0E1F1711F0100000000C0FEFFBB
:10020300FFFFFFFFFF0701000000FF7F3F1E080005
:100213008080C0F0FCFEFFFFFFFFFFFFFCF8E080E3
:100223000000010F3FFCF8F0F8FFFFFFFFFEFEFCAC
:10023300FEFEFFFFFFFFFFFEFEFF1F070080E0F84B
:10024300FEFFFEFCF8F0E0F0FCFFFFFFFFFFFFFF07
:10025300FFFFFEFEFFFFFFFFFFFFFFFFFFFFFEF8B5
:10026300F0E0C0C0DFFFFFFFFEFCF8F8F0FBFBF39C
:10027300F1E0F0F1F1E1E0F0F0F8FCFEFFFFFFFF49
:10028300FFFFFFFFFFFEFEFCF8F8F0F0F0F8FCFFC5
:10029300FFFFFFFFFFFFFFFFFFFFFFFFFFFFFFFF6B
:1002A300FFFEFCF8F0E0C38F9F7FFFFFFFFFFFFF20
:1002B300FFFFFFFFFFFFFF1F0380E0F8FEFFFFFFCD
:1002C300FFFFFFFFFFFFFFFFFFFFFFFFFFFFFFFF3B
:1002D300FFFFFFFFFFFFFFFFFFFFFFFFFFFFFFFF2B
:1002E300FFFFFFFFFFFFFFFFFFFFFFFFFFFFFFFF1B
:1002F300FFFFFFFFFFFFFFFFFFFFFFFFFFFFFFFF0B
:10030300FFFFFFFFFFFFFFFFFFFFFFFFFFFFFFFFFA
:10031300FFFFFFFFFFFFFFFFFFFFFFFFFFFFFFFFEA
:10032300FFFFFFFFFFFFFFFFFFFFFFFFFFFFFFFFDA
:10033300FFFFFF3F8FE3F0FCFFFFFFFFFFFFFFFF28
:10034300FFFFFFFFFFFFFFFFFFFFFFFFFFFFFFFFBA
:10035300FFFFFFFFFFFFFFFFFFFFFFFFFFFFFFFFAA
:10036300FFFFFFFFFFFFFFFFFFFFFFFFFFFFFFFF9A
:10037300FFFFFFFFFFFFFFFFFFFFFFFFFFFFFFFF8A
:10038300FFFFFFFFFFFFFFFFFFFFFFFFFFFFFFFF7A
:10039300FFFFFFFFFFFFFFFFFFFFFFFFFFFFFFFF6A
:1003A300FFFFFFFFFFFFFFFFFFFFFFFFFFFF7FBF1A
:1003B300CFF3FCFEFFFFFFFFFFFFFFFFFFFFFFFF8A
:1003C300FFFFFFFFFFFFFFFFFFFFFFFFFFFFFFFF3A
:1003D300FFFFFFFFFFFFFFFFFFFFFFFFFFFFFFFF2A
:1003E300FFFFFFFFFFFFFFFFFFFFFFFFFFFFFFFF1A
:1003F300FFFFFFFFFFFFFFFFFFFFFFFFFFFFFFFF0A
:0908DD000116B80118C001174012
:0D08D000C2A2C2A1C2A08F80D2A0C2A022ED
:0508BE00F583E493FF47
:0D08C300D2A2C2A1C2A08F80D2A0C2A022EA
:0908E7007F3E1208D00F0208D078
:0708A800C2A3D2A41208E76D
:0F08AF00AF161208D0AF181208D0AF170208D03A
:0B088E007516B87518C0751740C2A59C
:0E0899007F107E27EF1FAC0670011E4C70F61C
:0108A700222E
:10085400E4F515F514F513F51212088ED2A5E4FE8D
:100864001208A8E4FDE4FF1208C30DBD40F7D2A3AB
:10087400C2A41208E71208AFE4FDE4FF1208C30D96
:09088400BD40F705160EBE08D7B1
:01088D002248
:1007F000E4F515F514F513F51212088ED2A5E4FEF2
:100800001208A8E4FD75F080EEA42DF582E435F021
:10081000F583E5822403F582E58334001208BE0DDA
:10082000BD40E2D2A3C2A41208E71208AFE4FD75EE
:10083000F080EEA42DF582E435F0F583E5822443C3
:10084000F582E58334001208BE0DBD40E205160EA8
:03085000BE08AD32
:010853002282
:04078900AB05AA040E
:10078D00EF75F069A4FFAEF0E48F158E14F513F537
:10079D00127516B87518C0C3EB9404EA6480948082
:1007AD00500FC2A3D2A4EB75F015A4242BF517801E
:1007BD000DD2A3C2A4EB75F015A424ECF517E4FB40
:1007CD001208E71208AFE4FA781212068874032FA4
:1007DD00F58274003E1208BE0ABA15EC05160BBB65
:0207ED0005DE27
:0107EF0022E7
:100552007DFF7FF0EDF47061BFF00A12089975908B
:10056200F0AF9080F37590F0AF905307F0EFC45462
:100572000F44F0F4FFBF0104E4FD8013BF02047DC9
:1005820001800CBF04047D028005BF08027D037553
:10059200900FAF9053070FEF44F0F4FFBF020674C1
:1005A200042DFD80AFBF040674082DFD80A6EF6404
:1005B2000870A1740C2DFD809BEDB4100050779053
:1005C20005C8F82828730205F80205FC0206000295
:1005D200060402060802060C0206100206140206AF
:1005E2001802061C02062002062402062802062C15
:1005F2000206300206347D01803E7D02803A7D0390
:1006020080367D0A80327D04802E7D05802A7D061B
:1006120080267D0B80227D07801E7D08801A7D0941
:1006220080167D0C80127DF0800EE4FD800A7D0E26
:0D06320080067D0D80027DFF120899AF0546
:01063F002298
:10040300E4F508F5091208541207F07508FFE5082A
:10041300B4FF071205528F0880F4E508B4F005E431
:10042300F50980020509E5091460121460271460B8
:1004330042146057240470D312085480CEE508C3D5
:10044300940A500D750A0085080BAF0B7D01020558
:1004530045150980B6E508D394094013E508940EC1
:10046300500D750C0085080DAF0D7D020205451575
:10047300098098E508C3940A500D750E0085080F8E
:10048300AF0F7D0302054515098080E508640E6002
:100493000302054D7D04FC7F0E120789E50D640AF6
:1004A300450C700CE50B250FF511E50A350EF5101B
:1004B300E50D640B450C700DC3E50B950FF511E5C8
:1004C3000A950EF510E50D640C450C700FAC0EADDE
:1004D3000FAE0AAF0B1206408E108F11E50D640D9F
:1004E300450C700FAC0EAD0FAE0AAF0B1206528E59
:1004F300108F11C3E5106480948050127D057C0039
:100503007F0B120789E511F404FF7D068034C3E5F0
:1005130011940AE510648094805006AF117D058024
:1005230021AE10AF117C007D0A1206527D057C00BE
:10053300120789AE10AF117C007D0A120652AF0577
:0F0543007D067C0012078902040E150902040EC2
:030000000206FDF8
:0C06FD00787FE4F6D8FD758118020744F0
:10064000EF8DF0A4A8F0CF8CF0A428CE8DF0A42ECE
:02065000FE2288
:10065200C2D5EC30E709B2D5E4C39DFDE49CFCEEC3
:1006620030E715B2D5E4C39FFFE49EFE1206A8C38D
:10067200E49DFDE49CFC80031206A830D507C3E488
:060682009FFFE49EFE2232
:100688007401FF3395E0FEFDFC080808E6CF2FF65D
:1006980018E6CE3EF618E6CD3DF618E6CC3CF62236
:10070900020403E493A3F8E493A34003F68001F2FF
:1007190008DFF48029E493A3F85407240CC8C333F1
:10072900C4540F4420C8834004F456800146F6DFC0
:10073900E4800B01020408102040809008DDE47E6B
:10074900019360BCA3FF543F30E509541FFEE493B5
:10075900A360010ECF54C025E060A840B8E493A37C
:10076900FAE493A3F8E493A3C8C582C8CAC583CAA7
:10077900F0A3C8C582C8CAC583CADFE9DEE780BE5F
:0108E6000011
:1006A800BC000BBE0029EF8DF084FFADF022E4CC36
:1006B800F875F008EF2FFFEE33FEEC33FCEE9DECFF
:1006C800984005FCEE9DFE0FD5F0E9E4CEFD22ED45
:1006D800F8F5F0EE8420D21CFEADF075F008EF2F8F
:1006E800FFED33FD4007985006D5F0F222C398FD80
:0506F8000FD5F0EA221D
:00000001FF
