:0300000002021FDA
:0C021F00787FE4F6D8FD7581330202669A
:10031B00202008003F0006005B004F0066006D00C8
:10032B007D0007007F006F0077007C0039005E00C6
:03033B00790071D5
:10033F001200038E288F29E529452860F375B07FB9
:0B034F00E52925E02408F808E6F5A0E9
:02035A0080E33E
:100003007590EFAF90E48F33F532F531F5307FEF34
:10001300FEFDFCAB33AA32A931A830C31202AB6098
:1000230065E4752FD0752E07F52DF52C782C74FF0C
:100033001202C3EC4D4E4F70F3AF908F33F532F590
:1000430031F530AC30AD31AE321202E10083000045
:1000530000E7007B000000EB0073000000ED006B85
:10006300000000EE00000089752A00752B0780163A
:10007300752A00752B04800E752A00752B018006E6
:10008300752A00752B0A7590DFAF90E48F33F53234
:10009300F531F5307FDFFEFDFCAB33AA32A931A881
:1000A30030C31202AB6064E4752FD0752E07F52DB3
:1000B300F52C782C74FF1202C3EC4D4E4F70F3AF46
:1000C300908F33F532F531F530AC30AD31AE3212BD
:1000D30002E10109000000D70101000000DB00F983
:1000E300000000DD00F1000000DE0000010E752AB3
:1000F30000752B088015752A00752B05800D752A50
:1001030000752B028005E4F52AF52B7590BFAF909F
:10011300E48F33F532F531F5307FBFFEFDFCAB33B1
:10012300AA32A931A830C31202AB6065E4752FD09F
:10013300752E07F52DF52C782C74FF1202C3EC4DA8
:100143004E4F70F3AF908F33F532F531F530AC305D
:10015300AD31AE321202E1018E000000B70186001C
:100163000000BB017E000000BD0176000000BE0060
:10017300000194752A00752B098016752A00752BCA
:1001830006800E752A00752B038006752A00752BD1
:100193000B75907FAF90E48F33F532F531F5307FF7
:1001A3007FFEFDFCAB33AA32A931A830C31202ABE8
:1001B3006065E4752FD0752E07F52DF52C782C741A
:1001C300FF1202C3EC4D4E4F70F3AF908F33F532F5
:1001D300F531F530AC30AD31AE321202E10214002C
:1001E300000077020C0000007B02040000007D0188
:1001F300FC0000007E0000021A752A00752B0C809B
:1002030016752A00752B0D800E752A00752B0E802E
:0B02130006752A00752B0FAE2AAF2BDA
:01021E0022BD
:10022B0002033FE493A3F8E493A34003F68001F2A7
:10023B0008DFF48029E493A3F85407240CC8C333D4
:10024B00C4540F4420C8834004F456800146F6DFA3
:10025B00E4800B010204081020408090031BE47E15
:10026B00019360BCA3FF543F30E509541FFEE49398
:10027B00A360010ECF54C025E060A840B8E493A35F
:10028B00FAE493A3F8E493A3C8C582C8CAC583CA8A
:10029B00F0A3C8C582C8CAC583CADFE9DEE780BE42
:01033E0000BE
:1002AB00EB9FF5F0EA9E42F0E99D42F0EC6480C8CA
:0602BB0064809845F0226A
:1002C1007401FF3395E0FEFDFC080808E6CF2FF628
:1002D10018E6CE3EF618E6CD3DF618E6CC3CF62201
:1002E100D083D082E4937012740193700DA3A39311
:1002F100F8740193F5828883E4737402936C70122D
:100301007403936D700C7404936E70067405936F8F
:0A03110060DDA3A3A3A3A3A380CA89
:00000001FF
