:030000000202F603
:0C02F600787FE4F6D8FD75814B02033DD3
:1003F20020202C003F0006005B004F0066006D00CD
:100402007D0007007F006F0077007C0039005E00EE
:03041200790071FD
:10023B00E4F508F509E50925E0240EF8E4F608F6DF
:0E024B000509E509700205086408450870E71A
:100259001200038E1E8F1FE51FF4451E603FE4F553
:1002690008F509AF09EF25E02410F8E6FC08E6FDDA
:10027900EF25E0240EF8A60408A6050509E509708E
:100289000205086407450870DAE51F25E0242CF803
:10029900E6F51C08E6F51D751E00751FFFE4F50A55
:1002A900F50BF50C750D01C3E50B9409E50A64809E
:1002B9009480509CC374FF950DF5B0050BE50B7048
:1002C90002050A1425E0240EF808E6F5A0750800D1
:1002D900750996E5091509AE08700215084E70F3FF
:0D02E900E50D25E0F50DE50C33F50C80BAB0
:100003007520007521FF75220B7523B87590EFAF2E
:1000130090E48F2BF52AF529F5287FEFFEFDFCAB45
:100023002BAA2AA929A828C31203826069AE22EE4B
:100033003395E08523278E26F525F524782474FF50
:1000430012039AEC4D4E4F70F3AF908F2BF52AF5B8
:1000530029F528AC28AD29AE2A1203B80093000075
:1000630000E7008B000000EB0083000000ED007B45
:10007300000000EE0000009975200075210780162E
:10008300752000752104800E7520007521018006FE
:1000930075200075210A7590DFAF90E48F2BF52A48
:1000A300F529F5287FDFFEFDFCAB2BAA2AA929A899
:1000B30028C31203826068AE22EE3395E0852327BE
:1000C3008E26F525F524782474FF12039AEC4D4E01
:1000D3004F70F3AF908F2BF52AF529F528AC28AD97
:1000E30029AE2A1203B8011D000000D70115000034
:1000F30000DB010D000000DD0105000000DE000053
:1001030001227520007521088015752000752105D1
:10011300800D7520007521028005E4F520F5217519
:1001230090BFAF90E48F2BF52AF529F5287FBFFE0A
:10013300FDFCAB2BAA2AA929A828C3120382606954
:10014300AE22EE3395E08523278E26F525F5247818
:100153002474FF12039AEC4D4E4F70F3AF908F2B24
:10016300F52AF529F528AC28AD29AE2A1203B801E2
:10017300A6000000B7019E000000BB01960000002E
:10018300BD018E000000BE000001AC75200075218A
:10019300098016752000752106800E7520007521D3
:1001A30003800675200075210B75907FAF90E48F57
:1001B3002BF52AF529F5287F7FFEFDFCAB2BAA2A18
:1001C300A929A828C31203826069AE22EE3395E001
:1001D3008523278E26F525F524782474FF12039AA8
:1001E300EC4D4E4F70F3AF908F2BF52AF529F52880
:1001F300AC28AD29AE2A1203B80230000000770202
:10020300280000007B02200000007D02180000008F
:100213007E0000023675200075210C8016752000C3
:1002230075210D800E75200075210E800675200046
:0702330075210FAE20AF2181
:01023A0022A1
:1003020002023BE493A3F8E493A34003F68001F2D4
:1003120008DFF48029E493A3F85407240CC8C333FC
:10032200C4540F4420C8834004F456800146F6DFCB
:10033200E4800B01020408102040809003F2E47E66
:10034200019360BCA3FF543F30E509541FFEE493C0
:10035200A360010ECF54C025E060A840B8E493A387
:10036200FAE493A3F8E493A3C8C582C8CAC583CAB2
:10037200F0A3C8C582C8CAC583CADFE9DEE780BE6A
:0104150000E6
:10038200EB9FF5F0EA9E42F0E99D42F0EC6480C8F2
:0603920064809845F02292
:100398007401FF3395E0FEFDFC080808E6CF2FF650
:1003A80018E6CE3EF618E6CD3DF618E6CC3CF62229
:1003B800D083D082E4937012740193700DA3A39339
:1003C800F8740193F5828883E4737402936C701255
:1003D8007403936D700C7404936E70067405936FB8
:0A03E80060DDA3A3A3A3A3A380CAB2
:00000001FF
