:03000000020003F8
:0C000300787FE4F6D8FD75816D02004A9C
:10008F002064087F878F979FA6AEB5BCC3CAD0D612
:10009F00DCE1E6EAEEF2F5F8FAFCFDFEFEFEFDFC11
:1000AF00FAF8F5F2EEEAE6E1DCD6D0CAC3BCB5AE9B
:1000BF00A69F978F877F776F675F585049423B3472
:1000CF002E28221D1814100C09060402010000002E
:1000DF0001020406090C1014181D22282E343B426D
:0700EF004950585F676F776D
:1000F700756C00756D6390FEFFE56DF0156D700210
:10010700156CE56DB4FFEFE56CB4FFEAE4F56CF54B
:100117006D90FEFFE56DF0056DE56D7002056C6491
:0601270064456C70EC223F
:10012D00E4F56CF56D7408256DF8E690FEFFF005AD
:0E013D006DE56D7002056C6464456C70E8221F
:05014B0012012D80FBF4
:10000F0002014BE493A3F8E493A34003F68001F2BB
:10001F0008DFF48029E493A3F85407240CC8C333F2
:10002F00C4540F4420C8834004F456800146F6DFC1
:10003F00E4800B010204081020408090008FE47EC2
:10004F00019360BCA3FF543F30E509541FFEE493B6
:10005F00A360010ECF54C025E060A840B8E493A37D
:10006F00FAE493A3F8E493A3C8C582C8CAC583CAA8
:10007F00F0A3C8C582C8CAC583CADFE9DEE780BE60
:0100F6000009
:00000001FF
