:030000000200EA11
:0C00EA00787FE4F6D8FD75810B0200AEB3
:1000AE00E4750B10750A27F509F5087B80FAC3EB8A
:1000BE009401EA64809480401F8BA0780874FF122C
:1000CE00003BEC4D4E4F70F3FC7D02AF03AE0212BF
:0B00DE000003AA06AB0780D6E4FEFF7B
:0100E90022F4
:10000300C2D5EC30E709B2D5E4C39DFDE49CFCEE18
:1000130030E715B2D5E4C39FFFE49EFE120059C337
:10002300E49DFDE49CFC800312005930D507C3E432
:060033009FFFE49EFE2287
:100039007401FF3395E0FEFDFC080808E6CF2FF6B2
:1000490018E6CE3EF618E6CD3DF618E6CC3CF6228B
:10005900BC000BBE0029EF8DF084FFADF022E4CC8B
:10006900F875F008EF2FFFEE33FEEC33FCEE9DEC54
:10007900984005FCEE9DFE0FD5F0E9E4CEFD22ED9A
:10008900F8F5F0EE8420D21CFEADF075F008EF2FE4
:10009900FFED33FD4007985006D5F0F222C398FDD5
:0500A9000FD5F0EA2272
:00000001FF
