:0300000002010AF0
:0C010A00787FE4F6D8FD758113020088B0
:1000FA003F065B4F666D7D077F6F777C395E79714E
:10008800E4F50FF50EF50DF50C751301F512F511E4
:10009800F510E47F09FEFDFCAB0FAA0EA90DA80C14
:1000A800C3120052504BC374FF9513F5B0780C126D
:1000B800006874FA2FF58274003EF583E493F5A086
:1000C800E4750B32F50AF509F508780874FF120093
:1000D8006AEC4D4E4F70F3AF13AE12AD11AC107BFE
:1000E80002FAF9F81200038F138E128D118C10800A
:0100F800A166
:0100F90022E4
:10000300E88FF0A4CC8BF0A42CFCE98EF0A42CFC9C
:100013008AF0EDA42CFCEA8EF0A4CDA8F08BF0A41A
:100023002DCC3825F0FDE98FF0A42CCD35F0FCEB79
:100033008EF0A4FEA9F0EB8FF0A4CFC5F02ECD393E
:0F004300FEE43CFCEAA42DCE35F0FDE43CFC22AB
:10005200EB9FF5F0EA9E42F0E99D42F0EC6480C825
:0600620064809845F022C5
:100068007401FF3395E0FEFDFC080808E6CF2FF683
:1000780018E6CE3EF618E6CD3DF618E6CC3CF6225C
:00000001FF
