:0300000002008B70
:0C008B00787FE4F6D8FD75810F020003B9
:10007B003F065B4F666D7D077F6F777C395E7971CD
:10000300E4F5B0F50FF50EF50DF50CE47F0AFEFDF2
:10001300FCAB0FAA0EA90DA80CC31200455022E594
:100023000F90007B93F5A0E4750B20750A4EF5093C
:10003300F508780874FF12005DEC4D4E4F60CC80DC
:01004300F1CB
:010044002299
:10004500EB9FF5F0EA9E42F0E99D42F0EC6480C832
:0600550064809845F022D2
:10005B007401FF3395E0FEFDFC080808E6CF2FF690
:10006B0018E6CE3EF618E6CD3DF618E6CC3CF62269
:00000001FF
