:03000000020AA849
:0C0AA800787FE4F6D8FD75812102079AE2
:10000300000080C060606060C080000000FEFF01EF
:100013000000000001FFFE00000003070C0C0C0CA5
:10002300070300000000808040C0E00000000000E3
:100033000000000000FFFF000000000000000C0CA7
:100043000C0F0F0C0C0C00000000C060606060E03F
:10005300C0C0000000000000C0201008070300001B
:1000630000000E0F0C0C0C0C0C0C00000000C06008
:10007300606060E0C0800000000000181818183CA1
:10008300E7C300000000060C0C0C0C0E0703000075
:1000930000000000008040E0E000000000E0D0CC61
:1000A300C2C1C0FFFFC0C000000000000000000F7D
:1000B3000F0000000000E0E060606060606000002E
:1000C30000000F0F0C0C1C18F8E000000000060CD9
:1000D3000C0C0C0607010000000080C0C0606060CB
:1000E30060C0000000FEFF39080C0C0C1CF8F00087
:1000F300000003060C0C0C0C0607010000006060F6
:100103006060606060E0E0000000000080E0781C58
:10011300070300000000000C0F03000000000000B4
:10012300000080C0606060E0C080000000C0E33772
:100133001E1C18387FE3C0000003070E0C0C0C0CC8
:100143000E0703000000C0C060606060C080000054
:10015300001F3F706060602018FFFE000000060C67
:100163000C0C0C0607030000000000000000000058
:10017300000000000030303030303030303030009C
:10018300000303030303030303030300000000004E
:1001930000000000000000000060606060FE60601E
:1001A3006060000000000000000700000000000085
:1001B300000000000000000000000000000060607C
:1001C30060606060606000000000000000000000EC
:1001D300000000000000000000000000000000001C
:1001E30002060C18F0E0F0180C060200080C0603D7
:1001F30001000103060C08000000000000000000DD
:1002030080601000000000008060180601000000FC
:10021300006018060100000000000000000080C01C
:10022300C06060606060C00000FEFF8300000000EB
:100233000000000000000307060E0C0C0C0C060067
:100243000000000000000000000000000080CCC699
:1002530066666666FEFC00000007070C0C0C0C04C7
:10026300070F0C04000030303030F0F000000000C5
:10027300000000000000FFFF00000000000000007D
:1002830000000F0F0000000000000000000000004D
:100293000000000000F0FC1C0E060606060C000021
:1002A300000107070E0C0C0C0C06000000000000F8
:1002B300000000000000000000FEFE00000000003F
:1002C300FEFE000000070F0C0C0C06030F0F0000CE
:1002D300000030303030F0F000000000000000007B
:1002E3000000FFFF000000000000000000000F0FEF
:1002F30000000000000000000000000000000000FB
:100303000080CCC666666666FEFC00000007070C2C
:100313000C0C0C04070F0C0400000000808000008C
:100323000000000000060606FFFF0606060606009C
:1003330000000000070F0C0C0C0C0C000000000068
:10034300000000000000000000F0FC0E0606060E90
:10035300FCF000000001070E0C0C0C0E070100005E
:10036300000000000000000000000000000000FE8C
:10037300FE180C06060E0E000000000F0F00000012
:040383000000000076
:100A7B00C2A2C2A18F80D2A0E4FFFE0FBF00010E65
:080A8B00EF64144E70F5C2A0E7
:010A93002240
:100A94007F3F120A7B7FC0120A7B7FB8120A7B7FDA
:040AA40040020A7B87
:0D0A5500142403F58274003EF583E493FF42
:100A6200D2A2C2A18F80D2A0E4FFFE0FBF00010E6E
:080A7200EF64144E70F5C2A000
:010A7A002259
:04092B008C168D1782
:10092F00EF75F024A485F018F519E4FDFCC3E51765
:10093F009405E516648094805034C2A3D2A4ED24AC
:10094F00BAFF120A7BE51775F00CA42444FF120AB4
:10095F007BE4FAFB0519E519AE1870020518120AA7
:10096F00550BBB00010AEB640C4A70E88032D2A32E
:10097F00C2A4ED24BAFF120A7BE51775F00CA4246C
:10098F0004FF120A7BE4FAFB0519E519AE18700291
:10099F000518120A550BBB00010AEB640C4A70E8EC
:0B09AF000DBD00010CED64034C7082D4
:0109BA00221A
:1009BB00C2A5D2A5120A94E4F516F517FDFCC2A345
:1009CB00D2A4ED24B8FF120A7BE4FBFAE4FF120A6F
:1009DB00620BBB00010AEB64404A70F0D2A3C2A4C5
:1009EB00ED24B8FF120A7BE4FAFBE4FF120A620B58
:1009FB00BB00010AEB64404A70F00DBD00010CED29
:050A0B0064084C70B905
:010A100022C3
:100387007516007517FF7518137519887590EFAFF7
:1003970090E48F21F520F51FF51E7FEFFEFDFCABE6
:1003A70021AA20A91FA81EC31206076069AE18EE6E
:1003B7003395E085191D8E1CF51BF51A781A74FF05
:1003C70012061FEC4D4E4F70F3AF908F21F520F5BD
:1003D7001FF51EAC1EAD1FAE2012063D0417000010
:1003E70000E7040F000000EB0407000000ED03FF27
:1003F700000000EE0000041D751600751707801633
:10040700751600751704800E75160075170180069E
:100417007516007517197590DFAF90E48F21F520D9
:10042700F51FF51E7FDFFEFDFCAB21AA20A91FA843
:100437001EC31206076068AE18EE3395E085191DD6
:100447008E1CF51BF51A781A74FF12061FEC4D4E19
:100457004F70F3AF908F21F520F51FF51EAC1EAD41
:100467001FAE2012063D04A1000000D7049900002A
:1004770000DB0491000000DD0489000000DE0000BD
:1004870004A67516007517088015751600751705EB
:10049700800D7516007517028005E4F516F51775BA
:1004A70090BFAF90E48F21F520F51FF51E7FBFFEAB
:1004B700FDFCAB21AA20A91FA81EC312060760696D
:1004C700AE18EE3395E085191D8E1CF51BF51A78CD
:1004D7001A74FF12061FEC4D4E4F70F3AF908F2129
:1004E700F520F51FF51EAC1EAD1FAE2012063D050B
:1004F7002A000000B70522000000BB051A00000013
:10050700BD0512000000BE00000530751600751706
:10051700098016751600751706800E751600751773
:1005270003800675160075170A75907FAF90E48FE4
:1005370021F520F51FF51E7F7FFEFDFCAB21AA20CC
:10054700A91FA81EC31206076069AE18EE3395E00F
:1005570085191D8E1CF51BF51A781A74FF12061FD4
:10056700EC4D4E4F70F3AF908F21F520F51FF51E20
:10057700AC1EAD1FAE2012063D05B4000000770586
:10058700AC0000007B05A40000007D059C00000076
:100597007E000005BA75160075170E8016751600D1
:1005A70075170D800E75160075170C8006751600E9
:0705B70075170BAE16AF171C
:0105BE00221A
:10079A00E4F50AF50BC2A5D2A5120A94E4FDFC7F82
:1007AA000F12092B7D017C007F1012092B7D027C20
:1007BA00007F1112092B7D037C007F1212092B7D09
:1007CA00047C007F1312092B7D057C007F1412091B
:1007DA002B7D067C007F1512092B7D077C007F1676
:1007EA0012092B7D087C007F1712092B7D097C00DA
:1007FA007F180209257508007509FFE509F44508FF
:10080A0070091203878E088F0980F0E5096419457B
:10081A00087009F50AF50B1209BB80D9050BE50B1F
:10082A007002050AE50A70CDE50B24FE6018146013
:10083A0024146030240370BD85080C85090DAF0DA2
:10084A00E4FDFC02092585080E85090FAF0F7D011D
:10085A007C00020925850810850911AF117D027CEB
:10086A0000020925E509640A45087089E50F640B49
:10087A00450E700BE50D2511FFE50C35108012E5CC
:10088A000F640C450E700DC3E50D9511FFE50C952F
:10089A0010FE802AE50F640D450E700EAC10AD11E6
:1008AA00AE0CAF0D1205BFEE8014E50F640E450EB7
:1008BA007017AC10AD11AE0CAF0D1205D1EE339519
:1008CA00E08F158E14F513F5127D037C007F0A1252
:1008DA00092BE47F0AFEFDFCAB15AA14A913A81282
:1008EA00C31206075006AF157D04802DE47B0AFA71
:1008FA00F9F8AF15AE14AD13AC12120A117D047CCF
:10090A000012092BE47B0AFAF9F8AF15AE14AD13FD
:10091A00AC12120A11AF037D057C0012092B0207E3
:01092A00FFCD
:1005BF00EF8DF0A4A8F0CF8CF0A428CE8DF0A42E50
:0205CF00FE220A
:1005D100C2D5EC30E709B2D5E4C39DFDE49CFCEE45
:1005E10030E715B2D5E4C39FFFE49EFE120677C340
:1005F100E49DFDE49CFC800312067730D507C3E43B
:060601009FFFE49EFE22B3
:100A1100C2D5E830E70FB2D5E4C39BFBE49AFAE410
:100A210099F9E498F8EC30E717B2D5120A471207A2
:100A310008E4C39BFBE49AFAE499F9E498F880038B
:100A410012070830D50DE4C39FFFE49EFEE49DFD2F
:040A5100E49CFC2203
:10060700EB9FF5F0EA9E42F0E99D42F0EC6480C86A
:0606170064809845F0220A
:10061D007401FF3395E0FEFDFC080808E6CF2FF6C8
:10062D0018E6CE3EF618E6CD3DF618E6CC3CF622A1
:10063D00D083D082E4937012740193700DA3A393B1
:10064D00F8740193F5828883E4737402936C7012CD
:10065D007403936D700C7404936E70067405936F30
:0A066D0060DDA3A3A3A3A3A380CA2A
:10067700BC000BBE0029EF8DF084FFADF022E4CC67
:10068700F875F008EF2FFFEE33FEEC33FCEE9DEC30
:10069700984005FCEE9DFE0FD5F0E9E4CEFD22ED76
:1006A700F8F5F0EE8420D21CFEADF075F008EF2FC0
:1006B700FFED33FD4007985006D5F0F222C398FDB1
:0506C7000FD5F0EA224E
:1006CC0075F008758200EF2FFFEE33FECD33CDCCE5
:1006DC0033CCC58233C5829BED9AEC99E582984068
:1006EC000CF582EE9BFEED9AFDEC99FC0FD5F0D645
:1006FC00E4CEFBE4CDFAE4CCF9A88222B800C1B96F
:10070C000059BA002DEC8BF084CFCECDFCE5F0CBAC
:10071C00F97818EF2FFFEE33FEED33FDEC33FCEBE5
:10072C0033FB10D703994004EB99FB0FD8E5E4F9A0
:10073C00FA227818EF2FFFEE33FEED33FDEC33FC8D
:10074C00C933C910D7059BE99A4007EC9BFCE99A81
:10075C00F90FD8E0E4C9FAE4CCFB2275F010EF2FC6
:10076C00FFEE33FEED33FDCC33CCC833C810D707C6
:10077C009BEC9AE899400AED9BFDEC9AFCE899F801
:0E078C000FD5F0DAE4CDFBE4CCFAE4C8F92294
:00000001FF
