:0300000002018971
:0C018900787FE4F6D8FD7581390201D0C2
:10021500202008003F0006005B004F0066006D00CF
:100225007D0007007F006F0077007C0039005E00CD
:03023500790071DC
:10000300AF90E48F37F536F535F5347FFFFEFDFC11
:10001300AB37AA36A935A834C312011970030200FD
:10002300C1E47533D0753207F531F530783074FF9C
:10003300120131EC4D4E4F70F3AF908F37F536F51B
:1000430035F534AC34AD35AE3612014F00BB00008C
:10005300007F00B3000000BF00AB000000DF00A37F
:10006300000000EF009B000000F70093000000FB7E
:10007300008B000000FD0083000000FE000000C1B3
:10008300850A38850B398036850C38850D39802EE5
:10009300850E38850F398026851038851139801EE5
:1000A3008512388513398016851438851539800EE5
:1000B300851638851739800685183885193975B03E
:0700C300FE8539A0020003D5
:10019500020003E493A3F8E493A34003F68001F27D
:1001A50008DFF48029E493A3F85407240CC8C3336B
:1001B500C4540F4420C8834004F456800146F6DF3A
:1001C500E4800B0102040810204080900215E47EB3
:1001D500019360BCA3FF543F30E509541FFEE4932F
:1001E500A360010ECF54C025E060A840B8E493A3F6
:1001F500FAE493A3F8E493A3C8C582C8CAC583CA21
:10020500F0A3C8C582C8CAC583CADFE9DEE780BED8
:0102380000C5
:1000CA00E88FF0A4CC8BF0A42CFCE98EF0A42CFCD5
:1000DA008AF0EDA42CFCEA8EF0A4CDA8F08BF0A453
:1000EA002DCC3825F0FDE98FF0A42CCD35F0FCEBB2
:1000FA008EF0A4FEA9F0EB8FF0A4CFC5F02ECD3977
:0F010A00FEE43CFCEAA42DCE35F0FDE43CFC22E3
:10011900EB9FF5F0EA9E42F0E99D42F0EC6480C85D
:0601290064809845F022FD
:10012F007401FF3395E0FEFDFC080808E6CF2FF6BB
:10013F0018E6CE3EF618E6CD3DF618E6CC3CF62294
:10014F00D083D082E4937012740193700DA3A393A4
:10015F00F8740193F5828883E4737402936C7012C0
:10016F007403936D700C7404936E70067405936F23
:0A017F0060DDA3A3A3A3A3A380CA1D
:00000001FF
