:03000000020224D5
:0C022400787FE4F6D8FD75813102026B92
:10032000202008003F0006005B004F0066006D00C3
:100330007D0007007F006F0077007C0039005E00C1
:03034000790071D0
:100003007590EFAF90E48F2FF52EF52DF52C7FEF44
:10001300FEFDFCAB2FAA2EA92DA82CC31202B060A3
:1000230065E4752BD0752A07F529F528782874FF20
:100033001202C8EC4D4E4F70F3AF908F2FF52EF593
:100043002DF52CAC2CAD2DAE2E1202E60083000054
:1000530000E7007B000000EB0073000000ED006B85
:10006300000000EE000000898516308517318016E8
:10007300851030851131800E850A30850B3180065D
:10008300851C30851D317590DFAF90E48F2FF52EE1
:10009300F52DF52C7FDFFEFDFCAB2FAA2EA92DA895
:1000A3002CC31202B06065E4752BD0752A07F529BD
:1000B300F528782874FF1202C8EC4D4E4F70F3AF49
:1000C300908F2FF52EF52DF52CAC2CAD2DAE2E12D9
:1000D30002E60109000000D70101000000DB00F97E
:1000E300000000DD00F1000000DE0000010F8518B4
:1000F300308519318016851230851331800E850CB9
:1001030030850D3180068508308509317590BFAF84
:1001130090E48F2FF52EF52DF52C7FBFFEFDFCAB64
:100123002FAA2EA92DA82CC31202B06065E4752B4B
:10013300D0752A07F529F528782874FF1202C8EC30
:100143004D4E4F70F3AF908F2FF52EF52DF52CAC50
:100153002CAD2DAE2E1202E6018F000000B70187F1
:10016300000000BB017F000000BD0177000000BE5E
:1001730000000195851A30851B3180168514308562
:100183001531800E850E30850F318006851E308532
:100193001F3175907FAF90E48F2FF52EF52DF52C41
:1001A3007F7FFEFDFCAB2FAA2EA92DA82CC3120224
:1001B300B06065E4752BD0752A07F529F5287828F2
:1001C30074FF1202C8EC4D4E4F70F3AF908F2FF5B2
:1001D3002EF52DF52CAC2CAD2DAE2E1202E602150C
:1001E30000000077020D0000007B02050000007D87
:1001F30001FD0000007E0000021B852030852131B7
:100203008016852230852331800E85243085253163
:10021300800685263085273175B07F8531A00200A1
:0102230003D7
:10023000020003E493A3F8E493A34003F68001F2E1
:1002400008DFF48029E493A3F85407240CC8C333CF
:10025000C4540F4420C8834004F456800146F6DF9E
:10026000E4800B0102040810204080900320E47E0B
:10027000019360BCA3FF543F30E509541FFEE49393
:10028000A360010ECF54C025E060A840B8E493A35A
:10029000FAE493A3F8E493A3C8C582C8CAC583CA85
:1002A000F0A3C8C582C8CAC583CADFE9DEE780BE3D
:0103430000B9
:1002B000EB9FF5F0EA9E42F0E99D42F0EC6480C8C5
:0602C00064809845F02265
:1002C6007401FF3395E0FEFDFC080808E6CF2FF623
:1002D60018E6CE3EF618E6CD3DF618E6CC3CF622FC
:1002E600D083D082E4937012740193700DA3A3930C
:1002F600F8740193F5828883E4737402936C701228
:100306007403936D700C7404936E70067405936F8A
:0A03160060DDA3A3A3A3A3A380CA84
:00000001FF
